{
  "contractName": "coinToss",
  "abi": [
    {
      "anonymous": false,
      "inputs": [
        {
          "indexed": false,
          "internalType": "string",
          "name": "description",
          "type": "string"
        }
      ],
      "name": "LogNewProvableQuery",
      "type": "event"
    },
    {
      "anonymous": false,
      "inputs": [
        {
          "indexed": false,
          "internalType": "string",
          "name": "action_description",
          "type": "string"
        },
        {
          "indexed": false,
          "internalType": "string",
          "name": "name",
          "type": "string"
        },
        {
          "indexed": false,
          "internalType": "bytes32",
          "name": "ref_queryId",
          "type": "bytes32"
        }
      ],
      "name": "betCreatedAndWait",
      "type": "event"
    },
    {
      "anonymous": false,
      "inputs": [
        {
          "indexed": false,
          "internalType": "string",
          "name": "contract_balanceChecking",
          "type": "string"
        },
        {
          "indexed": false,
          "internalType": "uint256",
          "name": "contractBalance",
          "type": "uint256"
        },
        {
          "indexed": false,
          "internalType": "uint256",
          "name": "contractUserBalance",
          "type": "uint256"
        }
      ],
      "name": "eventCheckContractBalance",
      "type": "event"
    },
    {
      "anonymous": false,
      "inputs": [
        {
          "indexed": false,
          "internalType": "string",
          "name": "contract_balanceChecking",
          "type": "string"
        },
        {
          "indexed": false,
          "internalType": "uint256",
          "name": "contractBalance",
          "type": "uint256"
        },
        {
          "indexed": false,
          "internalType": "uint256",
          "name": "contractUserBalance",
          "type": "uint256"
        }
      ],
      "name": "eventCheckContractBalanceIfUserWin",
      "type": "event"
    },
    {
      "anonymous": false,
      "inputs": [
        {
          "indexed": false,
          "internalType": "bytes32",
          "name": "_queryId",
          "type": "bytes32"
        },
        {
          "indexed": false,
          "internalType": "uint256",
          "name": "randomNumber",
          "type": "uint256"
        },
        {
          "indexed": false,
          "internalType": "address",
          "name": "userAddress",
          "type": "address"
        },
        {
          "indexed": false,
          "internalType": "bool",
          "name": "userWinOrLose",
          "type": "bool"
        }
      ],
      "name": "oracleReplyBack",
      "type": "event"
    },
    {
      "constant": true,
      "inputs": [],
      "name": "usableBalance",
      "outputs": [
        {
          "internalType": "uint256",
          "name": "",
          "type": "uint256"
        }
      ],
      "payable": false,
      "stateMutability": "view",
      "type": "function"
    },
    {
      "constant": true,
      "inputs": [],
      "name": "userBetPoolBalance",
      "outputs": [
        {
          "internalType": "uint256",
          "name": "",
          "type": "uint256"
        }
      ],
      "payable": false,
      "stateMutability": "view",
      "type": "function"
    },
    {
      "constant": false,
      "inputs": [
        {
          "internalType": "bytes32",
          "name": "_myid",
          "type": "bytes32"
        },
        {
          "internalType": "string",
          "name": "_result",
          "type": "string"
        }
      ],
      "name": "__callback",
      "outputs": [],
      "payable": false,
      "stateMutability": "nonpayable",
      "type": "function"
    },
    {
      "constant": false,
      "inputs": [
        {
          "internalType": "bytes32",
          "name": "_queryId",
          "type": "bytes32"
        },
        {
          "internalType": "string",
          "name": "_result",
          "type": "string"
        },
        {
          "internalType": "bytes",
          "name": "_proof",
          "type": "bytes"
        }
      ],
      "name": "__callback",
      "outputs": [],
      "payable": false,
      "stateMutability": "nonpayable",
      "type": "function"
    },
    {
      "constant": false,
      "inputs": [
        {
          "internalType": "address",
          "name": "userPlaceBet",
          "type": "address"
        }
      ],
      "name": "getRandomNumOracle",
      "outputs": [
        {
          "internalType": "bytes32",
          "name": "",
          "type": "bytes32"
        }
      ],
      "payable": true,
      "stateMutability": "payable",
      "type": "function"
    },
    {
      "constant": false,
      "inputs": [
        {
          "internalType": "string",
          "name": "name",
          "type": "string"
        },
        {
          "internalType": "uint256",
          "name": "selectedCoinSide",
          "type": "uint256"
        }
      ],
      "name": "createBet",
      "outputs": [],
      "payable": true,
      "stateMutability": "payable",
      "type": "function"
    },
    {
      "constant": false,
      "inputs": [],
      "name": "onlyOwnerAddBalance",
      "outputs": [],
      "payable": true,
      "stateMutability": "payable",
      "type": "function"
    },
    {
      "constant": true,
      "inputs": [
        {
          "internalType": "bytes32",
          "name": "userBet_queryId",
          "type": "bytes32"
        }
      ],
      "name": "getBetInfo",
      "outputs": [
        {
          "internalType": "bytes32",
          "name": "ref_queryId",
          "type": "bytes32"
        },
        {
          "internalType": "string",
          "name": "name",
          "type": "string"
        },
        {
          "internalType": "uint256",
          "name": "selectedCoinSide",
          "type": "uint256"
        },
        {
          "internalType": "uint256",
          "name": "amountToBet",
          "type": "uint256"
        },
        {
          "internalType": "uint256",
          "name": "ref_randomNumber",
          "type": "uint256"
        },
        {
          "internalType": "bool",
          "name": "winOrLose",
          "type": "bool"
        }
      ],
      "payable": false,
      "stateMutability": "view",
      "type": "function"
    },
    {
      "constant": false,
      "inputs": [],
      "name": "withdrawAll",
      "outputs": [],
      "payable": false,
      "stateMutability": "nonpayable",
      "type": "function"
    },
    {
      "constant": false,
      "inputs": [
        {
          "internalType": "address payable",
          "name": "currentUserAddress",
          "type": "address"
        },
        {
          "internalType": "uint256",
          "name": "userBetAmount",
          "type": "uint256"
        }
      ],
      "name": "userWithdraw",
      "outputs": [
        {
          "internalType": "uint256",
          "name": "",
          "type": "uint256"
        }
      ],
      "payable": true,
      "stateMutability": "payable",
      "type": "function"
    },
    {
      "constant": false,
      "inputs": [
        {
          "internalType": "bytes32",
          "name": "user_queryId",
          "type": "bytes32"
        },
        {
          "internalType": "uint256",
          "name": "userRandonNum",
          "type": "uint256"
        }
      ],
      "name": "checkUserWinOrLose",
      "outputs": [],
      "payable": false,
      "stateMutability": "nonpayable",
      "type": "function"
    },
    {
      "constant": true,
      "inputs": [],
      "name": "checkOwner",
      "outputs": [
        {
          "internalType": "bool",
          "name": "",
          "type": "bool"
        }
      ],
      "payable": false,
      "stateMutability": "view",
      "type": "function"
    },
    {
      "constant": true,
      "inputs": [],
      "name": "isWaiting",
      "outputs": [
        {
          "internalType": "bool",
          "name": "",
          "type": "bool"
        }
      ],
      "payable": false,
      "stateMutability": "view",
      "type": "function"
    },
    {
      "constant": true,
      "inputs": [
        {
          "internalType": "uint256",
          "name": "amountToCheck",
          "type": "uint256"
        }
      ],
      "name": "checkContractBalance",
      "outputs": [
        {
          "internalType": "bool",
          "name": "",
          "type": "bool"
        }
      ],
      "payable": false,
      "stateMutability": "view",
      "type": "function"
    },
    {
      "constant": false,
      "inputs": [],
      "name": "getContractBalanceInfo",
      "outputs": [
        {
          "internalType": "uint256",
          "name": "currUsableBalance",
          "type": "uint256"
        },
        {
          "internalType": "uint256",
          "name": "currUserBetPoolBalance",
          "type": "uint256"
        }
      ],
      "payable": false,
      "stateMutability": "nonpayable",
      "type": "function"
    }
  ],
  "bytecode": "0x60806040526000600b60006101000a81548160ff0219169083151502179055506000600b60016101000a81548160ff0219169083151502179055506000600b60026101000a81548160ff021916908315150217905550336000806101000a81548173ffffffffffffffffffffffffffffffffffffffff021916908373ffffffffffffffffffffffffffffffffffffffff160217905550613c96806100a46000396000f3fe6080604052600436106100e85760003560e01c8063795aeb2c1161008a578063972289701161005957806397228970146105aa578063c067c90f14610602578063cdbce03d1461062d578063d67042061461065c576100e8565b8063795aeb2c146104ed5780637fecd5381461051f578063853828b61461054e5780638f88294c14610565576100e8565b80632e5e697a116100c65780632e5e697a146102a45780633727e02f146102cf57806338bbfa50146103225780633e458a8e1461048b576100e8565b8063161bd94f146100ed57806327dc297e146100f75780632a7850f1146101c9575b600080fd5b6100f5610721565b005b34801561010357600080fd5b506101c76004803603604081101561011a57600080fd5b81019080803590602001909291908035906020019064010000000081111561014157600080fd5b82018360208201111561015357600080fd5b8035906020019184600183028401116401000000008311171561017557600080fd5b91908080601f016020809104026020016040519081016040528093929190818152602001838380828437600081840152601f19601f8201169050808301925050505050505091929192905050506107ed565b005b3480156101d557600080fd5b50610202600480360360208110156101ec57600080fd5b8101908080359060200190929190505050610830565b604051808781526020018060200186815260200185815260200184815260200183151515158152602001828103825287818151815260200191508051906020019080838360005b83811015610264578082015181840152602081019050610249565b50505050905090810190601f1680156102915780820380516001836020036101000a031916815260200191505b5097505050505050505060405180910390f35b3480156102b057600080fd5b506102b9610986565b6040518082815260200191505060405180910390f35b3480156102db57600080fd5b50610308600480360360208110156102f257600080fd5b810190808035906020019092919050505061098c565b604051808215151515815260200191505060405180910390f35b34801561032e57600080fd5b506104896004803603606081101561034557600080fd5b81019080803590602001909291908035906020019064010000000081111561036c57600080fd5b82018360208201111561037e57600080fd5b803590602001918460018302840111640100000000831117156103a057600080fd5b91908080601f016020809104026020016040519081016040528093929190818152602001838380828437600081840152601f19601f8201169050808301925050505050505091929192908035906020019064010000000081111561040357600080fd5b82018360208201111561041557600080fd5b8035906020019184600183028401116401000000008311171561043757600080fd5b91908080601f016020809104026020016040519081016040528093929190818152602001838380828437600081840152601f19601f8201169050808301925050505050505091929192905050506109d3565b005b6104d7600480360360408110156104a157600080fd5b81019080803573ffffffffffffffffffffffffffffffffffffffff16906020019092919080359060200190929190505050610c3c565b6040518082815260200191505060405180910390f35b3480156104f957600080fd5b50610502610e58565b604051808381526020018281526020019250505060405180910390f35b34801561052b57600080fd5b50610534610e8e565b604051808215151515815260200191505060405180910390f35b34801561055a57600080fd5b50610563610ee2565b005b34801561057157600080fd5b506105a86004803603604081101561058857600080fd5b81019080803590602001909291908035906020019092919050505061112f565b005b6105ec600480360360208110156105c057600080fd5b81019080803573ffffffffffffffffffffffffffffffffffffffff1690602001909291905050506112a8565b6040518082815260200191505060405180910390f35b34801561060e57600080fd5b506106176115fe565b6040518082815260200191505060405180910390f35b34801561063957600080fd5b50610642611604565b604051808215151515815260200191505060405180910390f35b61071f6004803603604081101561067257600080fd5b810190808035906020019064010000000081111561068f57600080fd5b8201836020820111156106a157600080fd5b803590602001918460018302840111640100000000831117156106c357600080fd5b91908080601f016020809104026020016040519081016040528093929190818152602001838380828437600081840152601f19601f8201169050808301925050505050505091929192908035906020019092919050505061166c565b005b6000809054906101000a900473ffffffffffffffffffffffffffffffffffffffff1673ffffffffffffffffffffffffffffffffffffffff163373ffffffffffffffffffffffffffffffffffffffff16146107c6576040517f08c379a0000000000000000000000000000000000000000000000000000000008152600401808060200182810382526027815260200180613bb96027913960400191505060405180910390fd5b6002600754023073ffffffffffffffffffffffffffffffffffffffff163103600681905550565b61082c828260006040519080825280601f01601f1916602001820160405280156108265781602001600182028038833980820191505090505b506109d3565b5050565b600060606000806000806060600a60008981526020019081526020016000206000018054600181600116156101000203166002900480601f0160208091040260200160405190810160405280929190818152602001828054600181600116156101000203166002900480156108e65780601f106108bb576101008083540402835291602001916108e6565b820191906000526020600020905b8154815290600101906020018083116108c957829003601f168201915b505050505090506000600a60008a81526020019081526020016000206001015490506000600a60008b81526020019081526020016000206002015490506000600a60008c81526020019081526020016000206003015490506000600a60008d815260200190815260200160002060040160009054906101000a900460ff1690508b85858585859a509a509a509a509a509a50505050505091939550919395565b60065481565b600080826007543073ffffffffffffffffffffffffffffffffffffffff16310303905066b1a2bc2ec500008111156109c85760019150506109ce565b60009150505b919050565b6109db61190f565b73ffffffffffffffffffffffffffffffffffffffff163373ffffffffffffffffffffffffffffffffffffffff1614610a1257600080fd5b60006002836040516020018082805190602001908083835b60208310610a4d5780518252602082019150602081019050602083039250610a2a565b6001836020036101000a0380198251168184511680821785525050505050509050019150506040516020818303038152906040528051906020012060001c81610a9257fe5b06905080600a600086815260200190815260200160002060030181905550610aba848261112f565b600060096000600a600088815260200190815260200160002060040160019054906101000a900473ffffffffffffffffffffffffffffffffffffffff1673ffffffffffffffffffffffffffffffffffffffff1673ffffffffffffffffffffffffffffffffffffffff16815260200190815260200160002060006101000a81548160ff0219169083151502179055507fbb78faab67627e27ef315f50acca1b3b9a16c69355ab36b1c12f676b38b81f5684600a600087815260200190815260200160002060030154600a600088815260200190815260200160002060040160019054906101000a900473ffffffffffffffffffffffffffffffffffffffff16600a600089815260200190815260200160002060040160009054906101000a900460ff16604051808581526020018481526020018373ffffffffffffffffffffffffffffffffffffffff1673ffffffffffffffffffffffffffffffffffffffff1681526020018215151515815260200194505050505060405180910390a150505050565b6000600b60019054906101000a900460ff1615610ca4576040517f08c379a0000000000000000000000000000000000000000000000000000000008152600401808060200182810382526025815260200180613ab46025913960400191505060405180910390fd5b6001600b60016101000a81548160ff0219169083151502179055506000600283029050826007540360078190555060008473ffffffffffffffffffffffffffffffffffffffff168260405180600001905060006040518083038185875af1925050503d8060008114610d32576040519150601f19603f3d011682016040523d82523d6000602084013e610d37565b606091505b5050905080610dae576040517f08c379a000000000000000000000000000000000000000000000000000000000815260040180806020018281038252601e8152602001807f55736572205769746864726177205472616e73666572206661696c65642e000081525060200191505060405180910390fd5b7f7f34e86fdf0937984a302666e8b4c1fefa4a905c5b910edfe5a8cc3e944b3440600654600754604051808060200184815260200183815260200182810382526034815260200180613be060349139604001935050505060405180910390a16002600754023073ffffffffffffffffffffffffffffffffffffffff1631036006819055506000600b60016101000a81548160ff021916908315150217905550819250505092915050565b6000806002600754023073ffffffffffffffffffffffffffffffffffffffff163103600681905550600654600754915091509091565b6000600960003373ffffffffffffffffffffffffffffffffffffffff1673ffffffffffffffffffffffffffffffffffffffff16815260200190815260200160002060009054906101000a900460ff16905090565b6000809054906101000a900473ffffffffffffffffffffffffffffffffffffffff1673ffffffffffffffffffffffffffffffffffffffff163373ffffffffffffffffffffffffffffffffffffffff1614610f87576040517f08c379a0000000000000000000000000000000000000000000000000000000008152600401808060200182810382526027815260200180613bb96027913960400191505060405180910390fd5b600b60009054906101000a900460ff1615610fed576040517f08c379a0000000000000000000000000000000000000000000000000000000008152600401808060200182810382526024815260200180613c3e6024913960400191505060405180910390fd5b6001600b60006101000a81548160ff02191690831515021790555060003073ffffffffffffffffffffffffffffffffffffffff163190506000600681905550600060078190555060003373ffffffffffffffffffffffffffffffffffffffff168260405180600001905060006040518083038185875af1925050503d8060008114611094576040519150601f19603f3d011682016040523d82523d6000602084013e611099565b606091505b5050905080611110576040517f08c379a000000000000000000000000000000000000000000000000000000000815260040180806020018281038252601c8152602001807f5769746864726177416c6c205472616e73666572206661696c65642e0000000081525060200191505060405180910390fd5b6000600b60006101000a81548160ff0219169083151502179055505050565b600b60029054906101000a900460ff1615611195576040517f08c379a000000000000000000000000000000000000000000000000000000000815260040180806020018281038252602b815260200180613ad9602b913960400191505060405180910390fd5b6001600b60026101000a81548160ff0219169083151502179055506000600a600084815260200190815260200160002060040160019054906101000a900473ffffffffffffffffffffffffffffffffffffffff1690506000600a6000858152602001908152602001600020600201549050600080905083600a600087815260200190815260200160002060010154141561123d57600190506112378383610c3c565b50611258565b60009050816006540160068190555081600754036007819055505b80600a600087815260200190815260200160002060040160006101000a81548160ff0219169083151502179055506000600b60026101000a81548160ff0219169083151502179055505050505050565b60008060009050600062030d40905060006112c583600184611c2f565b9050600860008673ffffffffffffffffffffffffffffffffffffffff1673ffffffffffffffffffffffffffffffffffffffff16815260200190815260200160002060030181908060018154018082558091505090600182039060005260206000200160009091929091909150555061133b613865565b600860008773ffffffffffffffffffffffffffffffffffffffff1673ffffffffffffffffffffffffffffffffffffffff1681526020019081526020016000206000018054600181600116156101000203166002900480601f0160208091040260200160405190810160405280929190818152602001828054600181600116156101000203166002900480156114115780601f106113e657610100808354040283529160200191611411565b820191906000526020600020905b8154815290600101906020018083116113f457829003601f168201915b50505050508160000181905250600860008773ffffffffffffffffffffffffffffffffffffffff1673ffffffffffffffffffffffffffffffffffffffff16815260200190815260200160002060010154816020018181525050600860008773ffffffffffffffffffffffffffffffffffffffff1673ffffffffffffffffffffffffffffffffffffffff16815260200190815260200160002060020154816040018181525050858160a0019073ffffffffffffffffffffffffffffffffffffffff16908173ffffffffffffffffffffffffffffffffffffffff168152505080600a6000848152602001908152602001600020600082015181600001908051906020019061151e9291906138b3565b5060208201518160010155604082015181600201556060820151816003015560808201518160040160006101000a81548160ff02191690831515021790555060a08201518160040160016101000a81548173ffffffffffffffffffffffffffffffffffffffff021916908373ffffffffffffffffffffffffffffffffffffffff1602179055509050507fc4dc360d0a9c0677a3379ae0a3d81e887f761e65fdf3d7e00859d1bcd3c47389604051808060200182810382526043815260200180613b396043913960600191505060405180910390a181945050505050919050565b60075481565b60008060009054906101000a900473ffffffffffffffffffffffffffffffffffffffff1673ffffffffffffffffffffffffffffffffffffffff163373ffffffffffffffffffffffffffffffffffffffff1614156116645760019050611669565b600090505b90565b6000349050600033905060001515600960008373ffffffffffffffffffffffffffffffffffffffff1673ffffffffffffffffffffffffffffffffffffffff16815260200190815260200160002060009054906101000a900460ff1615151461171f576040517f08c379a000000000000000000000000000000000000000000000000000000000815260040180806020018281038252603d815260200180613b7c603d913960400191505060405180910390fd5b6001600960008373ffffffffffffffffffffffffffffffffffffffff1673ffffffffffffffffffffffffffffffffffffffff16815260200190815260200160002060006101000a81548160ff021916908315150217905550816007600082825401925050819055506002600754023073ffffffffffffffffffffffffffffffffffffffff1631036006819055506117b4613933565b84816000018190525083816020018181525050828160400181815250506117db82826121ca565b60006117e6836112a8565b90507ff4f75020dfe30d8eeb9a2cfa2f1d81896ba60e799b78d7c1acc58794fd9ec9b486826040518080602001806020018481526020018381038352602a815260200180613c14602a9139604001838103825285818151815260200191508051906020019080838360005b8381101561186c578082015181840152602081019050611851565b50505050905090810190601f1680156118995780820380516001836020036101000a031916815260200191505b5094505050505060405180910390a17f94db9e24fc17e2d9521598b99dd76d6154baeff66731f4b9b2381be089ba6d01600654600754604051808060200184815260200183815260200182810382526035815260200180613b0460359139604001935050505060405180910390a1505050505050565b60008073ffffffffffffffffffffffffffffffffffffffff16600260009054906101000a900473ffffffffffffffffffffffffffffffffffffffff1673ffffffffffffffffffffffffffffffffffffffff16148061199757506000611995600260009054906101000a900473ffffffffffffffffffffffffffffffffffffffff1661225f565b145b156119a8576119a6600061226a565b505b600260009054906101000a900473ffffffffffffffffffffffffffffffffffffffff1673ffffffffffffffffffffffffffffffffffffffff166338cc48316040518163ffffffff1660e01b8152600401602060405180830381600087803b158015611a1257600080fd5b505af1158015611a26573d6000803e3d6000fd5b505050506040513d6020811015611a3c57600080fd5b810190808051906020019092919050505073ffffffffffffffffffffffffffffffffffffffff16600160009054906101000a900473ffffffffffffffffffffffffffffffffffffffff1673ffffffffffffffffffffffffffffffffffffffff1614611b8757600260009054906101000a900473ffffffffffffffffffffffffffffffffffffffff1673ffffffffffffffffffffffffffffffffffffffff166338cc48316040518163ffffffff1660e01b8152600401602060405180830381600087803b158015611b0b57600080fd5b505af1158015611b1f573d6000803e3d6000fd5b505050506040513d6020811015611b3557600080fd5b8101908080519060200190929190505050600160006101000a81548173ffffffffffffffffffffffffffffffffffffffff021916908373ffffffffffffffffffffffffffffffffffffffff1602179055505b600160009054906101000a900473ffffffffffffffffffffffffffffffffffffffff1673ffffffffffffffffffffffffffffffffffffffff1663c281d19e6040518163ffffffff1660e01b815260040160206040518083038186803b158015611bef57600080fd5b505afa158015611c03573d6000803e3d6000fd5b505050506040513d6020811015611c1957600080fd5b8101908080519060200190929190505050905090565b60008083118015611c41575060208311155b611c4a57600080fd5b600a84029350606060016040519080825280601f01601f191660200182016040528015611c865781602001600182028038833980820191505090505b5090508360f81b81600081518110611c9a57fe5b60200101907effffffffffffffffffffffffffffffffffffffffffffffffffffffffffffff1916908160001a905350606060206040519080825280601f01601f191660200182016040528015611cff5781602001600182028038833980820191505090505b509050606060206040519080825280601f01601f191660200182016040528015611d385781602001600182028038833980820191505090505b5090506000611d4561227b565b905060208352424118600143034018602084015260208252806020830152606060206040519080825280601f01601f191660200182016040528015611d995781602001600182028038833980820191505090505b509050886020820152606060086040519080825280601f01601f191660200182016040528015611dd85781602001600182028038833980820191505090505b509050611deb826018600884600061259b565b50611df461395b565b60405180608001604052808781526020018881526020018681526020018481525090506000611e596040518060400160405280600681526020017f72616e646f6d0000000000000000000000000000000000000000000000000000815250838c6125fa565b9050606060086040519080825280601f01601f191660200182016040528015611e915781602001600182028038833980820191505090505b50905060208401517f0100000000000000000000000000000000000000000000000000000000000000810460278301537e01000000000000000000000000000000000000000000000000000000000000810460268301537d010000000000000000000000000000000000000000000000000000000000810460258301537c0100000000000000000000000000000000000000000000000000000000810460248301537b01000000000000000000000000000000000000000000000000000000810460238301537a0100000000000000000000000000000000000000000000000000008104602283015379010000000000000000000000000000000000000000000000000081046021830153780100000000000000000000000000000000000000000000000081046020830153506121b7828285600160048110611fd057fe5b6020020151600287600060048110611fe457fe5b60200201516040518082805190602001908083835b6020831061201c5780518252602082019150602081019050602083039250611ff9565b6001836020036101000a038019825116818451168082178552505050505050905001915050602060405180830381855afa15801561205e573d6000803e3d6000fd5b5050506040513d602081101561207357600080fd5b81019080805190602001909291905050508760026004811061209157fe5b60200201516040516020018085805190602001908083835b602083106120cc57805182526020820191506020810190506020830392506120a9565b6001836020036101000a03801982511681845116808217855250505050505090500184805190602001908083835b6020831061211d57805182526020820191506020810190506020830392506120fa565b6001836020036101000a03801982511681845116808217855250505050505090500183815260200182805190602001908083835b602083106121745780518252602082019150602081019050602083039250612151565b6001836020036101000a03801982511681845116808217855250505050505090500194505050505060405160208183030381529060405280519060200120612969565b8199505050505050505050509392505050565b80600860008473ffffffffffffffffffffffffffffffffffffffff1673ffffffffffffffffffffffffffffffffffffffff16815260200190815260200160002060008201518160000190805190602001906122269291906138b3565b5060208201518160010155604082015181600201556060820151816003019080519060200190612257929190613982565b509050505050565b6000813b9050919050565b6000612274612985565b9050919050565b60008073ffffffffffffffffffffffffffffffffffffffff16600260009054906101000a900473ffffffffffffffffffffffffffffffffffffffff1673ffffffffffffffffffffffffffffffffffffffff16148061230357506000612301600260009054906101000a900473ffffffffffffffffffffffffffffffffffffffff1661225f565b145b1561231457612312600061226a565b505b600260009054906101000a900473ffffffffffffffffffffffffffffffffffffffff1673ffffffffffffffffffffffffffffffffffffffff166338cc48316040518163ffffffff1660e01b8152600401602060405180830381600087803b15801561237e57600080fd5b505af1158015612392573d6000803e3d6000fd5b505050506040513d60208110156123a857600080fd5b810190808051906020019092919050505073ffffffffffffffffffffffffffffffffffffffff16600160009054906101000a900473ffffffffffffffffffffffffffffffffffffffff1673ffffffffffffffffffffffffffffffffffffffff16146124f357600260009054906101000a900473ffffffffffffffffffffffffffffffffffffffff1673ffffffffffffffffffffffffffffffffffffffff166338cc48316040518163ffffffff1660e01b8152600401602060405180830381600087803b15801561247757600080fd5b505af115801561248b573d6000803e3d6000fd5b505050506040513d60208110156124a157600080fd5b8101908080519060200190929190505050600160006101000a81548173ffffffffffffffffffffffffffffffffffffffff021916908373ffffffffffffffffffffffffffffffffffffffff1602179055505b600160009054906101000a900473ffffffffffffffffffffffffffffffffffffffff1673ffffffffffffffffffffffffffffffffffffffff1663abaa5f3e6040518163ffffffff1660e01b815260040160206040518083038186803b15801561255b57600080fd5b505afa15801561256f573d6000803e3d6000fd5b505050506040513d602081101561258557600080fd5b8101908080519060200190929190505050905090565b60606000828501905080845110156125b257600080fd5b600086602001905060008460200190505b8688602001018210156125eb57818901518082880152506020820191506020810190506125c3565b85935050505095945050505050565b60008073ffffffffffffffffffffffffffffffffffffffff16600260009054906101000a900473ffffffffffffffffffffffffffffffffffffffff1673ffffffffffffffffffffffffffffffffffffffff16148061268257506000612680600260009054906101000a900473ffffffffffffffffffffffffffffffffffffffff1661225f565b145b1561269357612691600061226a565b505b600260009054906101000a900473ffffffffffffffffffffffffffffffffffffffff1673ffffffffffffffffffffffffffffffffffffffff166338cc48316040518163ffffffff1660e01b8152600401602060405180830381600087803b1580156126fd57600080fd5b505af1158015612711573d6000803e3d6000fd5b505050506040513d602081101561272757600080fd5b810190808051906020019092919050505073ffffffffffffffffffffffffffffffffffffffff16600160009054906101000a900473ffffffffffffffffffffffffffffffffffffffff1673ffffffffffffffffffffffffffffffffffffffff161461287257600260009054906101000a900473ffffffffffffffffffffffffffffffffffffffff1673ffffffffffffffffffffffffffffffffffffffff166338cc48316040518163ffffffff1660e01b8152600401602060405180830381600087803b1580156127f657600080fd5b505af115801561280a573d6000803e3d6000fd5b505050506040513d602081101561282057600080fd5b8101908080519060200190929190505050600160006101000a81548173ffffffffffffffffffffffffffffffffffffffff021916908373ffffffffffffffffffffffffffffffffffffffff1602179055505b606060046040519080825280602002602001820160405280156128a957816020015b60608152602001906001900390816128945790505b509050836000600481106128b957fe5b6020020151816000815181106128cb57fe5b6020026020010181905250836001600481106128e357fe5b6020020151816001815181106128f557fe5b60200260200101819052508360026004811061290d57fe5b60200201518160028151811061291f57fe5b60200260200101819052508360036004811061293757fe5b60200201518160038151811061294957fe5b602002602001018190525061295f858285612edc565b9150509392505050565b8060046000848152602001908152602001600020819055505050565b6000806129a5731d3b2638a7cc9f2cb3d298a3da7a90b67e5506ed61225f565b1115612a4757731d3b2638a7cc9f2cb3d298a3da7a90b67e5506ed600260006101000a81548173ffffffffffffffffffffffffffffffffffffffff021916908373ffffffffffffffffffffffffffffffffffffffff160217905550612a3e6040518060400160405280600b81526020017f6574685f6d61696e6e6574000000000000000000000000000000000000000000815250613442565b60019050612ed9565b6000612a6673c03a2615d5efaf5f49f60b7bb6583eaec212fdf161225f565b1115612b085773c03a2615d5efaf5f49f60b7bb6583eaec212fdf1600260006101000a81548173ffffffffffffffffffffffffffffffffffffffff021916908373ffffffffffffffffffffffffffffffffffffffff160217905550612aff6040518060400160405280600c81526020017f6574685f726f707374656e330000000000000000000000000000000000000000815250613442565b60019050612ed9565b6000612b2773b7a07bcf2ba2f2703b24c0691b5278999c59ac7e61225f565b1115612bc95773b7a07bcf2ba2f2703b24c0691b5278999c59ac7e600260006101000a81548173ffffffffffffffffffffffffffffffffffffffff021916908373ffffffffffffffffffffffffffffffffffffffff160217905550612bc06040518060400160405280600981526020017f6574685f6b6f76616e0000000000000000000000000000000000000000000000815250613442565b60019050612ed9565b6000612be873146500cfd35b22e4a392fe0adc06de1a1368ed4861225f565b1115612c8a5773146500cfd35b22e4a392fe0adc06de1a1368ed48600260006101000a81548173ffffffffffffffffffffffffffffffffffffffff021916908373ffffffffffffffffffffffffffffffffffffffff160217905550612c816040518060400160405280600b81526020017f6574685f72696e6b656279000000000000000000000000000000000000000000815250613442565b60019050612ed9565b6000612ca973a2998efd205fb9d4b4963afb70778d6354ad3a4161225f565b1115612d4b5773a2998efd205fb9d4b4963afb70778d6354ad3a41600260006101000a81548173ffffffffffffffffffffffffffffffffffffffff021916908373ffffffffffffffffffffffffffffffffffffffff160217905550612d426040518060400160405280600a81526020017f6574685f676f65726c6900000000000000000000000000000000000000000000815250613442565b60019050612ed9565b6000612d6a736f485c8bf6fc43ea212e93bbf8ce046c7f1cb47561225f565b1115612dce57736f485c8bf6fc43ea212e93bbf8ce046c7f1cb475600260006101000a81548173ffffffffffffffffffffffffffffffffffffffff021916908373ffffffffffffffffffffffffffffffffffffffff16021790555060019050612ed9565b6000612ded7320e12a1f859b3feae5fb2a0a32c18f5a65555bbf61225f565b1115612e51577320e12a1f859b3feae5fb2a0a32c18f5a65555bbf600260006101000a81548173ffffffffffffffffffffffffffffffffffffffff021916908373ffffffffffffffffffffffffffffffffffffffff16021790555060019050612ed9565b6000612e707351efaf4c8b3c9afbd5ab9f4bbc82784ab6ef8faa61225f565b1115612ed4577351efaf4c8b3c9afbd5ab9f4bbc82784ab6ef8faa600260006101000a81548173ffffffffffffffffffffffffffffffffffffffff021916908373ffffffffffffffffffffffffffffffffffffffff16021790555060019050612ed9565b600090505b90565b60008073ffffffffffffffffffffffffffffffffffffffff16600260009054906101000a900473ffffffffffffffffffffffffffffffffffffffff1673ffffffffffffffffffffffffffffffffffffffff161480612f6457506000612f62600260009054906101000a900473ffffffffffffffffffffffffffffffffffffffff1661225f565b145b15612f7557612f73600061226a565b505b600260009054906101000a900473ffffffffffffffffffffffffffffffffffffffff1673ffffffffffffffffffffffffffffffffffffffff166338cc48316040518163ffffffff1660e01b8152600401602060405180830381600087803b158015612fdf57600080fd5b505af1158015612ff3573d6000803e3d6000fd5b505050506040513d602081101561300957600080fd5b810190808051906020019092919050505073ffffffffffffffffffffffffffffffffffffffff16600160009054906101000a900473ffffffffffffffffffffffffffffffffffffffff1673ffffffffffffffffffffffffffffffffffffffff161461315457600260009054906101000a900473ffffffffffffffffffffffffffffffffffffffff1673ffffffffffffffffffffffffffffffffffffffff166338cc48316040518163ffffffff1660e01b8152600401602060405180830381600087803b1580156130d857600080fd5b505af11580156130ec573d6000803e3d6000fd5b505050506040513d602081101561310257600080fd5b8101908080519060200190929190505050600160006101000a81548173ffffffffffffffffffffffffffffffffffffffff021916908373ffffffffffffffffffffffffffffffffffffffff1602179055505b6000600160009054906101000a900473ffffffffffffffffffffffffffffffffffffffff1673ffffffffffffffffffffffffffffffffffffffff16632ef3accc86856040518363ffffffff1660e01b81526004018080602001838152602001828103825284818151815260200191508051906020019080838360005b838110156131eb5780820151818401526020810190506131d0565b50505050905090810190601f1680156132185780820380516001836020036101000a031916815260200191505b509350505050602060405180830381600087803b15801561323857600080fd5b505af115801561324c573d6000803e3d6000fd5b505050506040513d602081101561326257600080fd5b81019080805190602001909291905050509050823a02670de0b6b3a764000001811115613295576000801b91505061343b565b60606132a08561345c565b9050600160009054906101000a900473ffffffffffffffffffffffffffffffffffffffff1673ffffffffffffffffffffffffffffffffffffffff1663c55c1cb68360008985896040518663ffffffff1660e01b8152600401808581526020018060200180602001848152602001838103835286818151815260200191508051906020019080838360005b8381101561334557808201518184015260208101905061332a565b50505050905090810190601f1680156133725780820380516001836020036101000a031916815260200191505b50838103825285818151815260200191508051906020019080838360005b838110156133ab578082015181840152602081019050613390565b50505050905090810190601f1680156133d85780820380516001836020036101000a031916815260200191505b5096505050505050506020604051808303818588803b1580156133fa57600080fd5b505af115801561340e573d6000803e3d6000fd5b50505050506040513d602081101561342557600080fd5b8101908080519060200190929190505050925050505b9392505050565b80600390805190602001906134589291906139cf565b5050565b60606134666134dc565b61346e613a4f565b61347a816104006134e8565b61348381613532565b60008090505b83518110156134c5576134b88482815181106134a157fe5b60200260200101518361354090919063ffffffff16565b8080600101915050613489565b506134cf81613565565b8060000151915050919050565b60405180590338823950565b60008190506000602082816134f957fe5b0614613512576020818161350957fe5b06602003810190505b808360200181815250506040518084526000815281810160405250505050565b61353d816004613573565b50565b61354d8260028351613594565b61356081836136d490919063ffffffff16565b505050565b613570816007613573565b50565b613590601f60058360ff16901b178361377f90919063ffffffff16565b5050565b601781116135c0576135bb8160058460ff16901b60ff16178461377f90919063ffffffff16565b6136cf565b60ff8111613601576135e5601860058460ff16901b178461377f90919063ffffffff16565b6135fb816001856137bf9092919063ffffffff16565b506136ce565b61ffff811161364357613627601960058460ff16901b178461377f90919063ffffffff16565b61363d816002856137bf9092919063ffffffff16565b506136cd565b63ffffffff81116136875761366b601a60058460ff16901b178461377f90919063ffffffff16565b613681816004856137bf9092919063ffffffff16565b506136cc565b67ffffffffffffffff81116136cb576136b3601b60058460ff16901b178461377f90919063ffffffff16565b6136c9816008856137bf9092919063ffffffff16565b505b5b5b5b5b505050565b6136dc613a4f565b8260200151836000015151835101111561370c5761370b83600261370586602001518651613826565b02613842565b5b60008060008451905085518051602081830101945086518101825260208701935050505b602081106137535781518352602083019250602082019150602081039050613730565b60006001826020036101000a039050801983511681855116818117865250508694505050505092915050565b816020015160018360000151510111156137a5576137a4826002846020015102613842565b5b815180516020818301018381536001820183525050505050565b6137c7613a4f565b8360200151846000015151830111156137f5576137f48460026137ee876020015186613826565b02613842565b5b60006001836101000a0390508451805184818301018684198251161781528582018352505050849150509392505050565b6000818311156138385782905061383c565b8190505b92915050565b60608260000151905061385583836134e8565b61385f83826136d4565b50505050565b6040518060c0016040528060608152602001600081526020016000815260200160008152602001600015158152602001600073ffffffffffffffffffffffffffffffffffffffff1681525090565b828054600181600116156101000203166002900490600052602060002090601f016020900481019282601f106138f457805160ff1916838001178555613922565b82800160010185558215613922579182015b82811115613921578251825591602001919060010190613906565b5b50905061392f9190613a69565b5090565b6040518060800160405280606081526020016000815260200160008152602001606081525090565b60405180608001604052806004905b606081526020019060019003908161396a5790505090565b8280548282559060005260206000209081019282156139be579160200282015b828111156139bd5782518255916020019190600101906139a2565b5b5090506139cb9190613a8e565b5090565b828054600181600116156101000203166002900490600052602060002090601f016020900481019282601f10613a1057805160ff1916838001178555613a3e565b82800160010185558215613a3e579182015b82811115613a3d578251825591602001919060010190613a22565b5b509050613a4b9190613a69565b5090565b604051806040016040528060608152602001600081525090565b613a8b91905b80821115613a87576000816000905550600101613a6f565b5090565b90565b613ab091905b80821115613aac576000816000905550600101613a94565b5090565b9056fe5265656e7472616e74207573657257697468647261772063616c6c206465746563746564215265656e7472616e7420636865636b5573657257696e4f724c6f73652063616c6c20646574656374656421436865636b696e672062616c616e636520696e2074686520636f6e7472616374206166746572206d616b696e672061206265743a2050726f7661626c65207175657279207761732073656e742c2077616974696e6720666f722074686520616e737765722066726f6d20746865204f7261636c652e2e2e2e596f7520617265207761697474696e6720666f7220796f75722062657420726573756c742e2e2e63616e6e6f74206d616b65206120626574206e6f7721596f7520617265206e6f7420746865206f776e6572206f66207468697320636f6e74726163742e436865636b696e672062616c616e636520696e2074686520636f6e7472616374206166746572206120757365722077696e733a204265742070726f64756365642c2077616974696e6720666f72204f7261636c6520726573756c742e2e2e5265656e7472616e74207769746864726177416c6c2063616c6c20646574656374656421a265627a7a72315820e7df4464bc352a9f86bbed16b6b29ddd9ae2b9a6da65adb530d26effc29db7e164736f6c634300050c0032",
  "source": "pragma solidity 0.5.12;\nimport \"./Ownable.sol\";\nimport \"./provableAPI.sol\";\n//import \"github.com/provable-things/ethereum-api/provableAPI.sol\";\n\ncontract coinToss is Ownable, usingProvable{\n\n  struct Person {\n      string name;\n      uint selectedCoinSide;\n      uint amountToBet;\n      bytes32[] bet_queryId;\n  }\n\n  struct BetInfo{\n    string name;\n    uint selectedCoinSide;\n    uint amountToBet;\n    uint ref_randomNumber;\n    bool winOrLose; // true for wining.\n    address userAddress;\n  }\n\n  uint256 constant NUM_RANDOM_BYTES_REQUESTED = 1;\n  uint public usableBalance; // usable balance in the contract\n  uint public userBetPoolBalance; // balance from the user\n\n  // For storing current status of an user and will keep updating every time\n  mapping(address => Person) private participant;\n  // For tracking whether a user is waiting for betting result, if ture, then the user cannot make a new bet\n  mapping(address => bool) private  address_waiting_Map;\n  // For preserving all of related information of a bet\n  mapping (bytes32 => BetInfo) private queryId_BetInfo_Map ;\n\n  event LogNewProvableQuery(string description);\n  event betCreatedAndWait(string action_description, string name, bytes32 ref_queryId);\n  event oracleReplyBack(bytes32 _queryId, uint256 randomNumber, address userAddress, bool userWinOrLose);\n  event eventCheckContractBalance(string contract_balanceChecking, uint256 contractBalance, uint256 contractUserBalance);\n  event eventCheckContractBalanceIfUserWin(string contract_balanceChecking, uint256 contractBalance, uint256 contractUserBalance);\n\n\n  // Oracle code\n  //===========================================================================\n  function __callback(bytes32 _queryId, string memory _result, bytes memory _proof) public {\n    require(msg.sender == provable_cbAddress()); // This can only be used by Oracle\n    uint256 randomNumber = uint256(keccak256(abi.encodePacked(_result))) % 2;\n    queryId_BetInfo_Map[_queryId].ref_randomNumber = randomNumber;\n    checkUserWinOrLose( _queryId, randomNumber);\n    address_waiting_Map[queryId_BetInfo_Map[_queryId].userAddress] = false;\n    emit oracleReplyBack(_queryId, queryId_BetInfo_Map[_queryId].ref_randomNumber, queryId_BetInfo_Map[_queryId].userAddress, queryId_BetInfo_Map[_queryId].winOrLose);\n  }\n  // Actual function to create random number from Oracle\n  function getRandomNumOracle(address userPlaceBet) payable public returns (bytes32){\n    uint256 QUERY_EXECUTION_DELAY = 0;\n    uint256 GAS_FOR_CALLBACK = 200000;\n    bytes32 queryId = provable_newRandomDSQuery(\n      QUERY_EXECUTION_DELAY,\n      NUM_RANDOM_BYTES_REQUESTED,\n      GAS_FOR_CALLBACK\n    );\n    participant[userPlaceBet].bet_queryId.push(queryId);\n    BetInfo memory newBet;\n    newBet.name = participant[userPlaceBet].name;\n    newBet.selectedCoinSide = participant[userPlaceBet].selectedCoinSide;\n    newBet.amountToBet = participant[userPlaceBet].amountToBet;\n    newBet.userAddress = userPlaceBet;\n    // Insert a new bet information with a queryId as the key\n    queryId_BetInfo_Map[queryId] = newBet;\n    emit LogNewProvableQuery(\"Provable query was sent, waiting for the answer from the Oracle....\");\n    return queryId;\n  }\n  //============================================================================\n\n\n  // function to create a bet, invoked by \"make_a_bet_button\"\n  function createBet(string memory name, uint selectedCoinSide) public payable {\n      uint current_msg_value = msg.value;\n      address current_msg_sender = msg.sender;\n      require(address_waiting_Map[current_msg_sender] == false, \"You are waitting for your bet result...cannot make a bet now!\");\n      address_waiting_Map[current_msg_sender] = true;\n      userBetPoolBalance += current_msg_value;\n      usableBalance = address(this).balance - userBetPoolBalance*2;\n      Person memory newPerson;\n      newPerson.name = name;\n      newPerson.selectedCoinSide = selectedCoinSide;\n      newPerson.amountToBet = current_msg_value;\n      insertPerson(current_msg_sender, newPerson);\n      bytes32 queryIdForRandomNum = getRandomNumOracle(current_msg_sender);\n      emit betCreatedAndWait(\"Bet produced, waiting for Oracle result...\", name, queryIdForRandomNum);\n      emit eventCheckContractBalance(\"Checking balance in the contract after making a bet: \", usableBalance, userBetPoolBalance);\n  }\n\n  // Adding user info into a mapping data structure\n  function insertPerson(address addrssKey, Person memory newPerson) private{\n      participant[addrssKey] = newPerson;\n  }\n\n  // Contract owner adds money to the  contract\n  function onlyOwnerAddBalance() public payable onlyOwner{\n      usableBalance = address(this).balance - userBetPoolBalance*2;\n  }\n\n  // Passing the result of a betting, invoked by fetchAndDisplay() function at front-end\n  function getBetInfo(bytes32 userBet_queryId) public view returns(bytes32 ref_queryId, string memory name, uint selectedCoinSide, uint amountToBet, uint ref_randomNumber, bool winOrLose){\n      string memory name_result = queryId_BetInfo_Map[userBet_queryId].name;\n      uint selectedCoinSide_result = queryId_BetInfo_Map[userBet_queryId].selectedCoinSide;\n      uint amountToBet_result = queryId_BetInfo_Map[userBet_queryId].amountToBet;\n      uint ref_randomNumber_result = queryId_BetInfo_Map[userBet_queryId].ref_randomNumber;\n      bool winOrLose_result = queryId_BetInfo_Map[userBet_queryId].winOrLose;\n\n      return (userBet_queryId, name_result, selectedCoinSide_result, amountToBet_result, ref_randomNumber_result, winOrLose_result);\n  }\n\n  // Withdraw all the money in the contract, invoked only by the Contract owner\n  bool private withdrawLock = false;\n  function withdrawAll() public onlyOwner {\n      require(!withdrawLock, \"Reentrant withdrawAll call detected!\");\n      withdrawLock = true;\n      uint toTransfer = address(this).balance;\n      usableBalance = 0;\n      userBetPoolBalance = 0;\n      (bool success, ) = msg.sender.call.value(toTransfer)(\"\");\n      require(success, \"WithdrawAll Transfer failed.\");\n      withdrawLock = false;\n  }\n\n  // When a user wins, this function will be invoked!!\n  bool private userWithdrawLock = false;\n  function userWithdraw(address payable currentUserAddress, uint userBetAmount) public payable returns(uint){\n      require(!userWithdrawLock, \"Reentrant userWithdraw call detected!\");\n      userWithdrawLock = true;\n      uint toTransfer = userBetAmount*2;\n      userBetPoolBalance = userBetPoolBalance - userBetAmount;\n      (bool success, ) = currentUserAddress.call.value(toTransfer)(\"\");\n      require(success, \"User Withdraw Transfer failed.\");\n      emit eventCheckContractBalanceIfUserWin(\"Checking balance in the contract after a user wins: \", usableBalance, userBetPoolBalance);\n      usableBalance = address(this).balance - userBetPoolBalance*2;\n      userWithdrawLock = false;\n      return toTransfer;\n  }\n\n  // update betting result after getting events emitted back from Oracle\n  bool private checkUserWinOrLoseLock = false;\n  function checkUserWinOrLose(bytes32 user_queryId, uint userRandonNum) public{\n    require(!checkUserWinOrLoseLock, \"Reentrant checkUserWinOrLose call detected!\");\n    checkUserWinOrLoseLock = true;\n    address payable user_Address = address(uint160(queryId_BetInfo_Map[user_queryId].userAddress));\n    uint userAmountToBet = queryId_BetInfo_Map[user_queryId].amountToBet;\n    bool betResult = false; // true for win, false for lose\n    if(queryId_BetInfo_Map[user_queryId].selectedCoinSide == userRandonNum){\n      betResult = true;\n      userWithdraw(user_Address, userAmountToBet);\n    }else{\n      betResult = false;\n      usableBalance = usableBalance + userAmountToBet;\n      userBetPoolBalance = userBetPoolBalance - userAmountToBet;\n    }\n    queryId_BetInfo_Map[user_queryId].winOrLose = betResult;\n    checkUserWinOrLoseLock = false;\n  }\n\n  // function for checking if you are the contract owner at front-end\n  function checkOwner() public view returns(bool){\n    if(msg.sender == owner){\n      return true;\n    }else{\n      return false;\n    }\n  }\n\n  // Checking if a user is in the middle of a bet and waiting...\n  function isWaiting() public view returns(bool){\n    return address_waiting_Map[msg.sender];\n  }\n\n  // Checking if the total balance of the contract is enough to hold a bet\n  function checkContractBalance(uint amountToCheck) public view returns(bool){\n    uint checkBalance = address(this).balance - userBetPoolBalance - amountToCheck;\n    if(checkBalance > 50000000000000000){ // minimum balance should larger than 0.5 Ether\n      return true; // Contract has enough money for this bet\n    }else{\n      return false; // Contract does not has enough money, return false\n    }\n  }\n\n  // For accessing currently usable contract balance\n  function getContractBalanceInfo() public returns(uint currUsableBalance, uint currUserBetPoolBalance){\n    usableBalance = address(this).balance - userBetPoolBalance*2;\n    return (usableBalance, userBetPoolBalance);\n  }\n\n} // end of Contract Class\n",
  "sourcePath": "/mnt/Data/blockChain/Dapp_CourseProject/coinToss/contracts/coinToss.sol",
  "compiler": {
    "name": "solc",
    "version": "0.5.12+commit.7709ece9.Emscripten.clang"
  },
  "schemaVersion": "3.0.23",
  "updatedAt": "2020-11-22T04:36:48.939Z",
  "networkType": "ethereum",
  "devdoc": {
    "methods": {
      "__callback(bytes32,string)": {
        "details": "The following `__callback` functions are just placeholders ideally     meant to be defined in child contract when proofs are used.     The function bodies simply silence compiler warnings."
      }
    }
  },
  "userdoc": {
    "methods": {}
  }
}